{
  "contractName": "Car",
  "abi": [
    {
      "inputs": [
        {
          "internalType": "contract CarNetwork",
          "name": "cn",
          "type": "address"
        }
      ],
      "payable": false,
      "stateMutability": "nonpayable",
      "type": "constructor"
    },
    {
      "anonymous": false,
      "inputs": [
        {
          "indexed": false,
          "internalType": "string",
          "name": "vin",
          "type": "string"
        },
        {
          "indexed": false,
          "internalType": "string",
          "name": "carModel",
          "type": "string"
        },
        {
          "indexed": false,
          "internalType": "address",
          "name": "manufacturer",
          "type": "address"
        },
        {
          "indexed": false,
          "internalType": "uint256",
          "name": "numCarParts",
          "type": "uint256"
        }
      ],
      "name": "CreateCar",
      "type": "event"
    },
    {
      "anonymous": false,
      "inputs": [
        {
          "indexed": false,
          "internalType": "string",
          "name": "str",
          "type": "string"
        }
      ],
      "name": "Debug",
      "type": "event"
    },
    {
      "anonymous": false,
      "inputs": [
        {
          "indexed": false,
          "internalType": "string",
          "name": "vin",
          "type": "string"
        },
        {
          "indexed": false,
          "internalType": "address",
          "name": "prevOwner",
          "type": "address"
        },
        {
          "indexed": false,
          "internalType": "address",
          "name": "currOwner",
          "type": "address"
        }
      ],
      "name": "TransferCar",
      "type": "event"
    },
    {
      "constant": false,
      "inputs": [
        {
          "internalType": "string",
          "name": "newVin",
          "type": "string"
        },
        {
          "internalType": "string",
          "name": "newCarModel",
          "type": "string"
        },
        {
          "components": [
            {
              "internalType": "address",
              "name": "createdBy",
              "type": "address"
            },
            {
              "internalType": "string",
              "name": "createdOn",
              "type": "string"
            },
            {
              "internalType": "string",
              "name": "carPart",
              "type": "string"
            },
            {
              "internalType": "string",
              "name": "model",
              "type": "string"
            },
            {
              "internalType": "string",
              "name": "batchNo",
              "type": "string"
            },
            {
              "internalType": "string",
              "name": "comment",
              "type": "string"
            }
          ],
          "internalType": "struct Car.serviceRecord[]",
          "name": "newCarParts",
          "type": "tuple[]"
        }
      ],
      "name": "createCar",
      "outputs": [],
      "payable": false,
      "stateMutability": "nonpayable",
      "type": "function"
    },
    {
      "constant": false,
      "inputs": [
        {
          "internalType": "string",
          "name": "vin",
          "type": "string"
        },
        {
          "internalType": "address",
          "name": "newOwner",
          "type": "address"
        }
      ],
      "name": "transferCar",
      "outputs": [],
      "payable": false,
      "stateMutability": "nonpayable",
      "type": "function"
    }
  ],
  "bytecode": "0x608060405260405180606001604052806040518060200160405280600081525081526020016003805480602002602001604051908101604052809291908181526020018280548015620000a857602002820191906000526020600020905b8160009054906101000a900473ffffffffffffffffffffffffffffffffffffffff1673ffffffffffffffffffffffffffffffffffffffff16815260200190600101908083116200005d575b505050505081526020016004805480602002602001604051908101604052809291908181526020016000905b8282101562000196578382906000526020600020018054600181600116156101000203166002900480601f016020809104026020016040519081016040528092919081815260200182805460018160011615610100020316600290048015620001815780601f10620001555761010080835404028352916020019162000181565b820191906000526020600020905b8154815290600101906020018083116200016357829003601f168201915b505050505081526020019060010190620000d4565b5050505081525060056000820151816000019080519060200190620001bd92919062000278565b506020820151816001019080519060200190620001dc929190620002ff565b506040820151816002019080519060200190620001fb9291906200038e565b5050503480156200020b57600080fd5b5060405162001a4f38038062001a4f8339818101604052620002319190810190620004f7565b806000806101000a81548173ffffffffffffffffffffffffffffffffffffffff021916908373ffffffffffffffffffffffffffffffffffffffff1602179055505062000585565b828054600181600116156101000203166002900490600052602060002090601f016020900481019282601f10620002bb57805160ff1916838001178555620002ec565b82800160010185558215620002ec579182015b82811115620002eb578251825591602001919060010190620002ce565b5b509050620002fb9190620003f5565b5090565b8280548282559060005260206000209081019282156200037b579160200282015b828111156200037a5782518260006101000a81548173ffffffffffffffffffffffffffffffffffffffff021916908373ffffffffffffffffffffffffffffffffffffffff1602179055509160200191906001019062000320565b5b5090506200038a91906200041d565b5090565b828054828255906000526020600020908101928215620003e2579160200282015b82811115620003e1578251829080519060200190620003d092919062000278565b5091602001919060010190620003af565b5b509050620003f1919062000463565b5090565b6200041a91905b8082111562000416576000816000905550600101620003fc565b5090565b90565b6200046091905b808211156200045c57600081816101000a81549073ffffffffffffffffffffffffffffffffffffffff02191690555060010162000424565b5090565b90565b6200049191905b808211156200048d576000818162000483919062000494565b506001016200046a565b5090565b90565b50805460018160011615610100020316600290046000825580601f10620004bc5750620004dd565b601f016020900490600052602060002090810190620004dc9190620003f5565b5b50565b600081519050620004f1816200056b565b92915050565b6000602082840312156200050a57600080fd5b60006200051a84828501620004e0565b91505092915050565b600062000530826200054b565b9050919050565b6000620005448262000523565b9050919050565b600073ffffffffffffffffffffffffffffffffffffffff82169050919050565b620005768162000537565b81146200058257600080fd5b50565b6114ba80620005956000396000f3fe608060405234801561001057600080fd5b50600436106100365760003560e01c8063b7119a301461003b578063f720acd214610057575b600080fd5b61005560048036036100509190810190610e33565b610073565b005b610071600480360361006c9190810190610e87565b61037c565b005b81600281604051610084919061114c565b908152602001604051809103902060009054906101000a900460ff166100df576040517f08c379a00000000000000000000000000000000000000000000000000000000081526004016100d690611264565b60405180910390fd5b8260006001826040516100f2919061114c565b9081526020016040518091039020600101805490509050600182604051610119919061114c565b9081526020016040518091039020600101600182038154811061013857fe5b9060005260206000200160009054906101000a900473ffffffffffffffffffffffffffffffffffffffff1673ffffffffffffffffffffffffffffffffffffffff163373ffffffffffffffffffffffffffffffffffffffff16146101d0576040517f08c379a00000000000000000000000000000000000000000000000000000000081526004016101c790611224565b60405180910390fd5b60006001866040516101e2919061114c565b9081526020016040518091039020600101805490509050600060018760405161020b919061114c565b9081526020016040518091039020600101600183038154811061022a57fe5b9060005260206000200160009054906101000a900473ffffffffffffffffffffffffffffffffffffffff169050600187604051610267919061114c565b90815260200160405180910390206001018690806001815401808255809150509060018203906000526020600020016000909192909190916101000a81548173ffffffffffffffffffffffffffffffffffffffff021916908373ffffffffffffffffffffffffffffffffffffffff1602179055505060006001886040516102ee919061114c565b9081526020016040518091039020600101838154811061030a57fe5b9060005260206000200160009054906101000a900473ffffffffffffffffffffffffffffffffffffffff1690507fa88b1f6a9e30cc81870da257301424a756cc44fa383146ad7be95c3a1923eafe88838360405161036a93929190611193565b60405180910390a15050505050505050565b6040518060400160405280600c81526020017f4d616e75666163747572657200000000000000000000000000000000000000008152506000809054906101000a900473ffffffffffffffffffffffffffffffffffffffff1673ffffffffffffffffffffffffffffffffffffffff16630988ca8c33836040518363ffffffff1660e01b815260040161040e929190611163565b60206040518083038186803b15801561042657600080fd5b505afa15801561043a573d6000803e3d6000fd5b505050506040513d601f19601f8201168201806040525061045e9190810190610e0a565b61049d576040517f08c379a000000000000000000000000000000000000000000000000000000000815260040161049490611244565b60405180910390fd5b82600560000190805190602001906104b692919061088b565b5060056001013390806001815401808255809150509060018203906000526020600020016000909192909190916101000a81548173ffffffffffffffffffffffffffffffffffffffff021916908373ffffffffffffffffffffffffffffffffffffffff160217905550506005600185604051610532919061114c565b90815260200160405180910390206000820181600001908054600181600116156101000203166002900461056792919061090b565b50600182018160010190805461057e929190610992565b5060028201816002019080546105959291906109e4565b5090505060016002856040516105ab919061114c565b908152602001604051809103902060006101000a81548160ff02191690831515021790555060008090505b82518110156107cf576001856040516105ef919061114c565b908152602001604051809103902060020183828151811061060c57fe5b602002602001015160400151908060018154018082558091505090600182039060005260206000200160009091929091909150908051906020019061065292919061088b565b5050600185604051610664919061114c565b908152602001604051809103902060030183828151811061068157fe5b60200260200101516040015160405161069a9190611135565b90815260200160405180910390208382815181106106b457fe5b60200260200101519080600181540180825580915050906001820390600052602060002090600602016000909192909190915060008201518160000160006101000a81548173ffffffffffffffffffffffffffffffffffffffff021916908373ffffffffffffffffffffffffffffffffffffffff160217905550602082015181600101908051906020019061074a929190610a54565b506040820151816002019080519060200190610767929190610a54565b506060820151816003019080519060200190610784929190610a54565b5060808201518160040190805190602001906107a1929190610a54565b5060a08201518160050190805190602001906107be929190610a54565b5050505080806001019150506105d6565b507fd2559ee66c8f7f6bb5cdedeed39d20ffc23233af7037dcda44878e7f09ef92f984600186604051610802919061114c565b9081526020016040518091039020600001600187604051610823919061114c565b908152602001604051809103902060010160008154811061084057fe5b9060005260206000200160009054906101000a900473ffffffffffffffffffffffffffffffffffffffff16855160405161087d94939291906111d1565b60405180910390a150505050565b828054600181600116156101000203166002900490600052602060002090601f016020900481019282601f106108cc57805160ff19168380011785556108fa565b828001600101855582156108fa579182015b828111156108f95782518255916020019190600101906108de565b5b5090506109079190610ad4565b5090565b828054600181600116156101000203166002900490600052602060002090601f016020900481019282601f106109445780548555610981565b8280016001018555821561098157600052602060002091601f016020900482015b82811115610980578254825591600101919060010190610965565b5b50905061098e9190610ad4565b5090565b8280548282559060005260206000209081019282156109d35760005260206000209182015b828111156109d25782548255916001019190600101906109b7565b5b5090506109e09190610af9565b5090565b828054828255906000526020600020908101928215610a435760005260206000209182015b82811115610a425782829080546001816001161561010002031660029004610a3292919061090b565b5091600101919060010190610a09565b5b509050610a509190610b3c565b5090565b828054600181600116156101000203166002900490600052602060002090601f016020900481019282601f10610a9557805160ff1916838001178555610ac3565b82800160010185558215610ac3579182015b82811115610ac2578251825591602001919060010190610aa7565b5b509050610ad09190610ad4565b5090565b610af691905b80821115610af2576000816000905550600101610ada565b5090565b90565b610b3991905b80821115610b3557600081816101000a81549073ffffffffffffffffffffffffffffffffffffffff021916905550600101610aff565b5090565b90565b610b6591905b80821115610b615760008181610b589190610b68565b50600101610b42565b5090565b90565b50805460018160011615610100020316600290046000825580601f10610b8e5750610bad565b601f016020900490600052602060002090810190610bac9190610ad4565b5b50565b600081359050610bbf81611449565b92915050565b600082601f830112610bd657600080fd5b8135610be9610be4826112b1565b611284565b9150818183526020840193506020810190508360005b83811015610c2f5781358601610c158882610cf6565b845260208401935060208301925050600181019050610bff565b5050505092915050565b600081519050610c4881611460565b92915050565b600082601f830112610c5f57600080fd5b8135610c72610c6d826112d9565b611284565b91508082526020830160208301858383011115610c8e57600080fd5b610c998382846113f6565b50505092915050565b600082601f830112610cb357600080fd5b8135610cc6610cc182611305565b611284565b91508082526020830160208301858383011115610ce257600080fd5b610ced8382846113f6565b50505092915050565b600060c08284031215610d0857600080fd5b610d1260c0611284565b90506000610d2284828501610bb0565b600083015250602082013567ffffffffffffffff811115610d4257600080fd5b610d4e84828501610c4e565b602083015250604082013567ffffffffffffffff811115610d6e57600080fd5b610d7a84828501610c4e565b604083015250606082013567ffffffffffffffff811115610d9a57600080fd5b610da684828501610c4e565b606083015250608082013567ffffffffffffffff811115610dc657600080fd5b610dd284828501610c4e565b60808301525060a082013567ffffffffffffffff811115610df257600080fd5b610dfe84828501610c4e565b60a08301525092915050565b600060208284031215610e1c57600080fd5b6000610e2a84828501610c39565b91505092915050565b60008060408385031215610e4657600080fd5b600083013567ffffffffffffffff811115610e6057600080fd5b610e6c85828601610ca2565b9250506020610e7d85828601610bb0565b9150509250929050565b600080600060608486031215610e9c57600080fd5b600084013567ffffffffffffffff811115610eb657600080fd5b610ec286828701610ca2565b935050602084013567ffffffffffffffff811115610edf57600080fd5b610eeb86828701610ca2565b925050604084013567ffffffffffffffff811115610f0857600080fd5b610f1486828701610bc5565b9150509250925092565b610f27816113c0565b82525050565b610f3681611378565b82525050565b6000610f4782611351565b610f51818561135c565b9350610f61818560208601611405565b610f6a81611438565b840191505092915050565b6000610f8082611351565b610f8a818561136d565b9350610f9a818560208601611405565b80840191505092915050565b6000610fb182611346565b610fbb818561136d565b9350610fcb818560208601611405565b80840191505092915050565b600081546001811660008114610ff4576001811461101a5761105e565b607f6002830416611005818761135c565b955060ff19831686526020860193505061105e565b60028204611028818761135c565b955061103385611331565b60005b8281101561105557815481890152600182019150602081019050611036565b80880195505050505b505092915050565b6000611073601b8361135c565b91507f526571756972652063617227732063757272656e74206f776e657200000000006000830152602082019050919050565b60006110b360208361135c565b91507f596f7520646f206e6f74206861766520746865206163636573732072696768746000830152602082019050919050565b60006110f360198361135c565b91507f56696e206e756d62657220646f6573206e6f74206578697374000000000000006000830152602082019050919050565b61112f816113b6565b82525050565b60006111418284610fa6565b915081905092915050565b60006111588284610f75565b915081905092915050565b60006040820190506111786000830185610f1e565b818103602083015261118a8184610f3c565b90509392505050565b600060608201905081810360008301526111ad8186610f3c565b90506111bc6020830185610f2d565b6111c96040830184610f2d565b949350505050565b600060808201905081810360008301526111eb8187610f3c565b905081810360208301526111ff8186610fd7565b905061120e6040830185610f2d565b61121b6060830184611126565b95945050505050565b6000602082019050818103600083015261123d81611066565b9050919050565b6000602082019050818103600083015261125d816110a6565b9050919050565b6000602082019050818103600083015261127d816110e6565b9050919050565b6000604051905081810181811067ffffffffffffffff821117156112a757600080fd5b8060405250919050565b600067ffffffffffffffff8211156112c857600080fd5b602082029050602081019050919050565b600067ffffffffffffffff8211156112f057600080fd5b601f19601f8301169050602081019050919050565b600067ffffffffffffffff82111561131c57600080fd5b601f19601f8301169050602081019050919050565b60008190508160005260206000209050919050565b600081519050919050565b600081519050919050565b600082825260208201905092915050565b600081905092915050565b600061138382611396565b9050919050565b60008115159050919050565b600073ffffffffffffffffffffffffffffffffffffffff82169050919050565b6000819050919050565b60006113cb826113d2565b9050919050565b60006113dd826113e4565b9050919050565b60006113ef82611396565b9050919050565b82818337600083830152505050565b60005b83811015611423578082015181840152602081019050611408565b83811115611432576000848401525b50505050565b6000601f19601f8301169050919050565b61145281611378565b811461145d57600080fd5b50565b6114698161138a565b811461147457600080fd5b5056fea365627a7a72315820e9ff2ae51301ec4363041e75a50067913c228f5f60c08a6f287e6ad5e06d973c6c6578706572696d656e74616cf564736f6c63430005100040",
  "source": "pragma solidity ^0.5.0;\r\npragma experimental ABIEncoderV2; //use this to return struct \r\nimport \"./CarNetwork.sol\";\r\n// https://ethereum.stackexchange.com/questions/69077/how-can-i-return-dynamic-string-array-in-solidity\r\n// https://docs.soliditylang.org/en/v0.5.2/abi-spec.html?highlight=abiencoderv2\r\n\r\ncontract Car {\r\n\r\n    CarNetwork carNetwork;\r\n    mapping(string => car) carMap; //the string here refers to VIN car number\r\n    mapping(string => bool) carExistMap; \r\n    struct car {\r\n        string carModel;\r\n        address[] ownersList; // first is manufacturer, last is currOwner\r\n        string[] carPartsList; //the list of keys for the carPartsMapping\r\n        mapping (string => serviceRecord[]) carPartsServiceRecordMapping;\r\n    }\r\n    struct serviceRecord {\r\n        address createdBy;\r\n        string createdOn; \r\n        string carPart;\r\n        string model;\r\n        string batchNo;\r\n        string comment;\r\n    }\r\n    // new care template /////////////////\r\n    address[] emptyOwnersArray;\r\n    string[] emptyCarPartsListArray;\r\n    car newCar = car(\r\n        \"\",\r\n        emptyOwnersArray,\r\n        emptyCarPartsListArray\r\n    );\r\n    //////////////////////////////////////\r\n\r\n    event CreateCar(string vin, string carModel, address manufacturer, uint numCarParts);\r\n    event TransferCar(string vin, address prevOwner, address currOwner);\r\n    event Debug(string str);\r\n\r\n    constructor(CarNetwork cn) public {\r\n        carNetwork = cn;\r\n    }\r\n\r\n    modifier onlyRole(string memory role) {\r\n        require(carNetwork.checkRole(msg.sender, role), \"You do not have the access right\");\r\n        _;\r\n    }\r\n\r\n    modifier carExist(string memory vin) {\r\n        require(carExistMap[vin], \"Vin number does not exist\");\r\n        _;\r\n    }\r\n\r\n    modifier onlyCurrOwner(string memory vin) {\r\n        uint arrLength = carMap[vin].ownersList.length;\r\n        require(msg.sender == carMap[vin].ownersList[arrLength-1], \"Require car's current owner\");\r\n        _;\r\n    }\r\n    \r\n    function createCar(string memory newVin, string memory newCarModel, \r\n    serviceRecord[] memory newCarParts) \r\n    public onlyRole(\"Manufacturer\") {\r\n        newCar.carModel = newCarModel;\r\n        newCar.ownersList.push(msg.sender);\r\n        carMap[newVin] = newCar;\r\n        carExistMap[newVin] = true;\r\n        for(uint i = 0; i < newCarParts.length; i++){\r\n            carMap[newVin].carPartsList.push(newCarParts[i].carPart);\r\n            carMap[newVin].carPartsServiceRecordMapping[newCarParts[i].carPart].push(newCarParts[i]);\r\n        }\r\n        emit CreateCar(newVin, carMap[newVin].carModel, carMap[newVin].ownersList[0], newCarParts.length);\r\n    }\r\n\r\n    function transferCar(string memory vin, address newOwner)\r\n    public carExist(vin) onlyCurrOwner(vin) {\r\n        uint arrLength = carMap[vin].ownersList.length;\r\n        address prevOwner = carMap[vin].ownersList[arrLength-1];\r\n        carMap[vin].ownersList.push(newOwner);\r\n        address currOwner = carMap[vin].ownersList[arrLength];\r\n        emit TransferCar(vin, prevOwner, currOwner);\r\n    }\r\n\r\n    // function getCar(string memory vin) public view returns (car memory){\r\n    //     return carMap[vin];\r\n    // }\r\n\r\n    // function workShopAddServiceRecord(string memory vin, string memory createdOn,\r\n    // string memory carPart, string memory model, string memory batchNo, string memory comment) \r\n    // public carExist(vin) onlyRole(\"Workshop\") onlyCurrOwner(vin) {\r\n \r\n    // }\r\n    \r\n}",
  "sourcePath": "C:/Users/lixua/OneDrive/NUS/IS4302/project/IS4302-Car-Caring-Cared/contracts/Car.sol",
  "compiler": {
    "name": "solc",
    "version": "0.5.16+commit.9c3226ce.Emscripten.clang"
  },
  "schemaVersion": "3.3.3",
  "updatedAt": "2021-03-22T05:40:08.504Z",
  "networkType": "ethereum",
  "devdoc": {
    "methods": {}
  },
  "userdoc": {
    "methods": {}
  }
}