{
  "contractName": "CarNetwork",
  "abi": [
    {
      "inputs": [
        {
          "internalType": "address",
          "name": "admin_Address",
          "type": "address"
        }
      ],
      "payable": false,
      "stateMutability": "nonpayable",
      "type": "constructor"
    },
    {
      "anonymous": false,
      "inputs": [
        {
          "indexed": false,
          "internalType": "address",
          "name": "newAddress",
          "type": "address"
        },
        {
          "indexed": false,
          "internalType": "string",
          "name": "role",
          "type": "string"
        }
      ],
      "name": "Register",
      "type": "event"
    },
    {
      "constant": false,
      "inputs": [
        {
          "internalType": "address",
          "name": "newUserAddress",
          "type": "address"
        },
        {
          "internalType": "string",
          "name": "newRole",
          "type": "string"
        }
      ],
      "name": "register",
      "outputs": [],
      "payable": false,
      "stateMutability": "nonpayable",
      "type": "function"
    },
    {
      "constant": true,
      "inputs": [
        {
          "internalType": "address",
          "name": "checkAddress",
          "type": "address"
        },
        {
          "internalType": "string",
          "name": "userRole",
          "type": "string"
        }
      ],
      "name": "checkRole",
      "outputs": [
        {
          "internalType": "bool",
          "name": "",
          "type": "bool"
        }
      ],
      "payable": false,
      "stateMutability": "view",
      "type": "function"
    }
  ],
  "bytecode": "0x608060405234801561001057600080fd5b50604051610da8380380610da88339818101604052602081101561003357600080fd5b8101908080519060200190929190505050806000806101000a81548173ffffffffffffffffffffffffffffffffffffffff021916908373ffffffffffffffffffffffffffffffffffffffff16021790555050610d14806100946000396000f3fe608060405234801561001057600080fd5b50600436106100365760003560e01c80630988ca8c1461003b57806332434a2e1461012e575b600080fd5b6101146004803603604081101561005157600080fd5b81019080803573ffffffffffffffffffffffffffffffffffffffff1690602001909291908035906020019064010000000081111561008e57600080fd5b8201836020820111156100a057600080fd5b803590602001918460018302840111640100000000831117156100c257600080fd5b91908080601f016020809104026020016040519081016040528093929190818152602001838380828437600081840152601f19601f820116905080830192505050505050509192919290505050610209565b604051808215151515815260200191505060405180910390f35b6102076004803603604081101561014457600080fd5b81019080803573ffffffffffffffffffffffffffffffffffffffff1690602001909291908035906020019064010000000081111561018157600080fd5b82018360208201111561019357600080fd5b803590602001918460018302840111640100000000831117156101b557600080fd5b91908080601f016020809104026020016040519081016040528093929190818152602001838380828437600081840152601f19601f820116905080830192505050505050509192919290505050610411565b005b6000600260008473ffffffffffffffffffffffffffffffffffffffff1673ffffffffffffffffffffffffffffffffffffffff16815260200190815260200160002060009054906101000a900460ff166102ca576040517f08c379a000000000000000000000000000000000000000000000000000000000815260040180806020018281038252601d8152602001807f55736572206e6f74207265676973746572656420696e2073797374656d00000081525060200191505060405180910390fd5b816040516020018082805190602001908083835b6020831061030157805182526020820191506020810190506020830392506102de565b6001836020036101000a03801982511681845116808217855250505050505090500191505060405160208183030381529060405280519060200120600160008573ffffffffffffffffffffffffffffffffffffffff1673ffffffffffffffffffffffffffffffffffffffff16815260200190815260200160002060000160405160200180828054600181600116156101000203166002900480156103dc5780601f106103ba5761010080835404028352918201916103dc565b820191906000526020600020905b8154815290600101906020018083116103c8575b5050915050604051602081830303815290604052805190602001201415610406576001905061040b565b600090505b92915050565b6000809054906101000a900473ffffffffffffffffffffffffffffffffffffffff1673ffffffffffffffffffffffffffffffffffffffff163373ffffffffffffffffffffffffffffffffffffffff16146104d3576040517f08c379a000000000000000000000000000000000000000000000000000000000815260040180806020018281038252601a8152602001807f5468697320616374696f6e2072657175697265732061646d696e00000000000081525060200191505060405180910390fd5b600260008373ffffffffffffffffffffffffffffffffffffffff1673ffffffffffffffffffffffffffffffffffffffff16815260200190815260200160002060009054906101000a900460ff1615610576576040517f08c379a0000000000000000000000000000000000000000000000000000000008152600401808060200182810382526021815260200180610cbf6021913960400191505060405180910390fd5b61057e610c06565b6040518060200160405280604051806020016040528060008152508152509050606060405160200180807f4f776e6572000000000000000000000000000000000000000000000000000000815250600501905060405160208183030381529060405280519060200120836040516020018082805190602001908083835b6020831061061e57805182526020820191506020810190506020830392506105fb565b6001836020036101000a0380198251168184511680821785525050505050509050019150506040516020818303038152906040528051906020012014156106d6576040518060400160405280600581526020017f4f776e657200000000000000000000000000000000000000000000000000000081525082600001819052506040518060400160405280600581526020017f4f776e657200000000000000000000000000000000000000000000000000000081525090505b60405160200180807f4d616e7566616374757265720000000000000000000000000000000000000000815250600c01905060405160208183030381529060405280519060200120836040516020018082805190602001908083835b602083106107545780518252602082019150602081019050602083039250610731565b6001836020036101000a03801982511681845116808217855250505050505090500191505060405160208183030381529060405280519060200120141561080c576040518060400160405280600c81526020017f4d616e756661637475726572000000000000000000000000000000000000000081525082600001819052506040518060400160405280600c81526020017f4d616e756661637475726572000000000000000000000000000000000000000081525090505b60405160200180807f4465616c65720000000000000000000000000000000000000000000000000000815250600601905060405160208183030381529060405280519060200120836040516020018082805190602001908083835b6020831061088a5780518252602082019150602081019050602083039250610867565b6001836020036101000a038019825116818451168082178552505050505050905001915050604051602081830303815290604052805190602001201415610942576040518060400160405280600681526020017f4465616c6572000000000000000000000000000000000000000000000000000081525082600001819052506040518060400160405280600681526020017f4465616c6572000000000000000000000000000000000000000000000000000081525090505b60405160200180807f576f726b73686f70000000000000000000000000000000000000000000000000815250600801905060405160208183030381529060405280519060200120836040516020018082805190602001908083835b602083106109c0578051825260208201915060208101905060208303925061099d565b6001836020036101000a038019825116818451168082178552505050505050905001915050604051602081830303815290604052805190602001201415610a78576040518060400160405280600881526020017f576f726b73686f7000000000000000000000000000000000000000000000000081525082600001819052506040518060400160405280600881526020017f576f726b73686f7000000000000000000000000000000000000000000000000081525090505b6001600260008673ffffffffffffffffffffffffffffffffffffffff1673ffffffffffffffffffffffffffffffffffffffff16815260200190815260200160002060006101000a81548160ff02191690831515021790555081600160008673ffffffffffffffffffffffffffffffffffffffff1673ffffffffffffffffffffffffffffffffffffffff1681526020019081526020016000206000820151816000019080519060200190610b2c929190610c19565b509050507f6ba0831d2f62ae5cbf7214bcc1d79c5da1d705f12811efda0beaa840006f874e8482604051808373ffffffffffffffffffffffffffffffffffffffff1673ffffffffffffffffffffffffffffffffffffffff16815260200180602001828103825283818151815260200191508051906020019080838360005b83811015610bc5578082015181840152602081019050610baa565b50505050905090810190601f168015610bf25780820380516001836020036101000a031916815260200191505b50935050505060405180910390a150505050565b6040518060200160405280606081525090565b828054600181600116156101000203166002900490600052602060002090601f016020900481019282601f10610c5a57805160ff1916838001178555610c88565b82800160010185558215610c88579182015b82811115610c87578251825591602001919060010190610c6c565b5b509050610c959190610c99565b5090565b610cbb91905b80821115610cb7576000816000905550600101610c9f565b5090565b9056fe5573657220616c7265616479207265676973746572656420696e2073797374656da265627a7a723158205f3c5647306b666980ee4c6783b82bc4b3f107c33598c576222361c65cd3d35664736f6c63430005100032",
  "source": "pragma solidity ^0.5.0;\r\n\r\ncontract CarNetwork {\r\n       \r\n    address admin;\r\n    struct user {\r\n        string role;\r\n    }\r\n    mapping(address => user) private userMap;\r\n    mapping(address => bool) private userExistMap;\r\n\r\n    event Register(address newAddress, string role);\r\n\r\n    constructor(address admin_Address) public {\r\n        admin = admin_Address;\r\n    }\r\n\r\n    modifier onlyAdmin() {\r\n        require(msg.sender == admin, \"This action requires admin\");\r\n        _;\r\n    }\r\n    \r\n    function register(address newUserAddress, string memory newRole) public onlyAdmin(){\r\n        require(!userExistMap[newUserAddress], \"User already registered in system\");\r\n        user memory newUser = user(\r\n            \"\"\r\n        );\r\n        string memory role;\r\n        if (keccak256(abi.encodePacked((newRole))) == keccak256(abi.encodePacked((\"Owner\")))) {\r\n            newUser.role = \"Owner\";\r\n            role = \"Owner\";\r\n        }\r\n        if (keccak256(abi.encodePacked((newRole))) == keccak256(abi.encodePacked((\"Manufacturer\")))) {\r\n            newUser.role = \"Manufacturer\";\r\n            role = \"Manufacturer\";\r\n        }\r\n        if (keccak256(abi.encodePacked((newRole))) == keccak256(abi.encodePacked((\"Dealer\")))) {\r\n            newUser.role = \"Dealer\";\r\n            role =  \"Dealer\";\r\n        }\r\n        if (keccak256(abi.encodePacked((newRole))) == keccak256(abi.encodePacked((\"Workshop\")))) {\r\n            newUser.role = \"Workshop\";\r\n            role = \"Workshop\";\r\n        }\r\n        userExistMap[newUserAddress] = true;\r\n        userMap[newUserAddress] = newUser;\r\n        emit Register(newUserAddress, role);\r\n    }\r\n\r\n    function checkRole(address checkAddress, string memory userRole) public view returns(bool) {\r\n        require(userExistMap[checkAddress], \"User not registered in system\");\r\n        if (keccak256(abi.encodePacked((userMap[checkAddress].role))) == keccak256(abi.encodePacked((userRole)))) {\r\n            return true;\r\n        } else {\r\n            return false;\r\n        }\r\n    }\r\n\r\n}",
  "sourcePath": "C:\\Users\\lixua\\OneDrive\\NUS\\IS4302\\project\\IS4302-Car-Caring-Cared\\contracts\\CarNetwork.sol",
  "compiler": {
    "name": "solc",
    "version": "0.5.16+commit.9c3226ce.Emscripten.clang"
  },
  "schemaVersion": "3.3.3",
  "updatedAt": "2021-03-22T05:40:08.514Z",
  "networkType": "ethereum",
  "devdoc": {
    "methods": {}
  },
  "userdoc": {
    "methods": {}
  }
}